{
    "contractName": "Bank",
    "abi": [
        {
            "inputs": [],
            "stateMutability": "nonpayable",
            "type": "constructor"
        },
        {
            "inputs": [],
            "name": "bankName",
            "outputs": [
                {
                    "internalType": "string",
                    "name": "",
                    "type": "string"
                }
            ],
            "stateMutability": "view",
            "type": "function"
        },
        {
            "inputs": [],
            "name": "bankOwner",
            "outputs": [
                {
                    "internalType": "address",
                    "name": "",
                    "type": "address"
                }
            ],
            "stateMutability": "view",
            "type": "function"
        },
        {
            "inputs": [
                {
                    "internalType": "address",
                    "name": "",
                    "type": "address"
                }
            ],
            "name": "customerBalance",
            "outputs": [
                {
                    "internalType": "uint256",
                    "name": "",
                    "type": "uint256"
                }
            ],
            "stateMutability": "view",
            "type": "function"
        },
        {
            "inputs": [],
            "name": "depositMoney",
            "outputs": [],
            "stateMutability": "payable",
            "type": "function"
        },
        {
            "inputs": [],
            "name": "getBankBalance",
            "outputs": [
                {
                    "internalType": "uint256",
                    "name": "",
                    "type": "uint256"
                }
            ],
            "stateMutability": "view",
            "type": "function"
        },
        {
            "inputs": [],
            "name": "getCustomerBalance",
            "outputs": [
                {
                    "internalType": "uint256",
                    "name": "",
                    "type": "uint256"
                }
            ],
            "stateMutability": "view",
            "type": "function"
        },
        {
            "inputs": [
                {
                    "internalType": "string",
                    "name": "_name",
                    "type": "string"
                }
            ],
            "name": "setBankName",
            "outputs": [],
            "stateMutability": "nonpayable",
            "type": "function"
        },
        {
            "inputs": [
                {
                    "internalType": "address payable",
                    "name": "_to",
                    "type": "address"
                },
                {
                    "internalType": "uint256",
                    "name": "_total",
                    "type": "uint256"
                }
            ],
            "name": "withdrawMoney",
            "outputs": [],
            "stateMutability": "nonpayable",
            "type": "function"
        }
    ],
    "bytecode": "608060405234801561001057600080fd5b50600080546001600160a01b03191633179055610762806100326000396000f3fe60806040526004361061007b5760003560e01c80637b83b50b1161004e5780637b83b50b14610110578063a853409a14610125578063e147aaa714610147578063f274c8971461017f57600080fd5b806316c05aa21461008057806327d358011461008a57806337ebe47b146100b557806370142690146100f0575b600080fd5b61008861019f565b005b34801561009657600080fd5b5061009f61022c565b6040516100ac9190610529565b60405180910390f35b3480156100c157600080fd5b506100e26100d0366004610596565b60026020526000908152604090205481565b6040519081526020016100ac565b3480156100fc57600080fd5b5061008861010b3660046105d0565b6102ba565b34801561011c57600080fd5b506100e2610345565b34801561013157600080fd5b50336000908152600260205260409020546100e2565b34801561015357600080fd5b50600054610167906001600160a01b031681565b6040516001600160a01b0390911681526020016100ac565b34801561018b57600080fd5b5061008861019a366004610681565b6103c4565b346000036102065760405162461bcd60e51b815260206004820152602960248201527f596f75206e65656420746f206465706f73697420736f6d6520616d6f756e74206044820152686f66206d6f6e65792160b81b60648201526084015b60405180910390fd5b33600090815260026020526040812080543492906102259084906106c3565b9091555050565b60018054610239906106db565b80601f0160208091040260200160405190810160405280929190818152602001828054610265906106db565b80156102b25780601f10610287576101008083540402835291602001916102b2565b820191906000526020600020905b81548152906001019060200180831161029557829003601f168201915b505050505081565b6000546001600160a01b0316331461032e5760405162461bcd60e51b815260206004820152603160248201527f596f75206d75737420626520746865206f776e657220746f2073657420746865604482015270206e616d65206f66207468652062616e6b60781b60648201526084016101fd565b8051610341906001906020840190610490565b5050565b600080546001600160a01b031633146103bf5760405162461bcd60e51b815260206004820152603660248201527f596f75206d75737420626520746865206f776e6572206f66207468652062616e60448201527535903a379039b2b29030b636103130b630b731b2b99760511b60648201526084016101fd565b504790565b336000908152600260205260409020548111156104315760405162461bcd60e51b815260206004820152602560248201527f596f75206861766520696e7375666669656e742066756e647320746f20776974604482015264686472617760d81b60648201526084016101fd565b3360009081526002602052604081208054839290610450908490610715565b90915550506040516001600160a01b0383169082156108fc029083906000818181858888f1935050505015801561048b573d6000803e3d6000fd5b505050565b82805461049c906106db565b90600052602060002090601f0160209004810192826104be5760008555610504565b82601f106104d757805160ff1916838001178555610504565b82800160010185558215610504579182015b828111156105045782518255916020019190600101906104e9565b50610510929150610514565b5090565b5b808211156105105760008155600101610515565b600060208083528351808285015260005b818110156105565785810183015185820160400152820161053a565b81811115610568576000604083870101525b50601f01601f1916929092016040019392505050565b6001600160a01b038116811461059357600080fd5b50565b6000602082840312156105a857600080fd5b81356105b38161057e565b9392505050565b634e487b7160e01b600052604160045260246000fd5b6000602082840312156105e257600080fd5b813567ffffffffffffffff808211156105fa57600080fd5b818401915084601f83011261060e57600080fd5b813581811115610620576106206105ba565b604051601f8201601f19908116603f01168101908382118183101715610648576106486105ba565b8160405282815287602084870101111561066157600080fd5b826020860160208301376000928101602001929092525095945050505050565b6000806040838503121561069457600080fd5b823561069f8161057e565b946020939093013593505050565b634e487b7160e01b600052601160045260246000fd5b600082198211156106d6576106d66106ad565b500190565b600181811c908216806106ef57607f821691505b60208210810361070f57634e487b7160e01b600052602260045260246000fd5b50919050565b600082821015610727576107276106ad565b50039056fea2646970667358221220bc8723ec1f1f5bec9db5b351c600b46398b0c7f9a80661f38472a0130d8dbfd564736f6c634300080d0033",
    "sourcePath": "/home/abims/Public/SmartContract_Bank/contracts/Bank.sol",
    "compiler": {
        "name": "solc",
        "version": "0.8.13+commit.abaa5c0e"
    },
    "functionHashes": {
        "bankName()": "27d35801",
        "bankOwner()": "e147aaa7",
        "customerBalance(address)": "37ebe47b",
        "depositMoney()": "16c05aa2",
        "getBankBalance()": "7b83b50b",
        "getCustomerBalance()": "a853409a",
        "setBankName(string)": "70142690",
        "withdrawMoney(address,uint256)": "f274c897"
    },
    "gasEstimates": {
        "creation": {
            "codeDepositCost": "378000",
            "executionCost": "24653",
            "totalCost": "402653"
        },
        "external": {
            "bankName()": "infinite",
            "bankOwner()": "2381",
            "customerBalance(address)": "2558",
            "depositMoney()": "24508",
            "getBankBalance()": "2418",
            "getCustomerBalance()": "2382",
            "setBankName(string)": "infinite",
            "withdrawMoney(address,uint256)": "infinite"
        }
    }
}